:0C0000000C945A000C9400000C940000BA
:10000C000C9400000C9400000C9400000C94000064
:10001C000C9400000C9400000C9400000C94000054
:10002C000C9400000C9400000C9400000C94000044
:10003C000C9400000C9400000C9400000C94000034
:10004C000C9400000C9400001027E80364000A00D4
:10005C000100001000011000010030000000000041
:10006C0000000000000000000000000000005469C7
:10007C006D653A0025640030000080C00600600207
:10008C007A00020066027E00020068027E00020016
:10009C006A02830002006C02830002006E0283007D
:1000AC000200700286000000F894EE27ECBBF1E031
:1000BC00FBBFEBBFE5BF8DE0A2E0BB27ED938A95BC
:1000CC00E9F780E098E0A0E6ED930197E9F7E8E81E
:1000DC00F0E085919591009761F0A591B59105900F
:1000EC001590BF01F00105900D920197E1F7FB010E
:1000FC00F0CFEFE5EDBFE8E0EEBFC0E6D2E00C9448
:10010C008700EF97619784E1ACE3B0E0E6E6F0E0BE
:10011C000E94570400E110E02FE030E041E250E093
:10012C00E0E0E8BBEFEFE7BBA0E10E9464030E94B4
:10013C001503E5E0EA93A0E00E940503A0E6B2E017
:10014C000E94CE03E3E0EA93A1E00E940503DE01E6
:10015C0098960E944203A6E6B2E00E944203DE019A
:10016C0054960E944203A8E6B2E00E944203DE01CC
:10017C000E94CE034F5F5F4FECE3F0E0E417F5070E
:10018C0059F440E050E02F5F3F4FE217F30721F4A2
:10019C0020E030E00F5F1F4FFE01B8960E94D403A1
:1001AC00F8010E94DB03FE0174960E94D403F9014E
:1001BC000E94DB03FE010E94D403FA010E94DB03C0
:1001CC000A30E0E01E0774F40E94E403DE019A9604
:1001DC000E949703FE01B8960E94E903AAE6B2E0DA
:1001EC000E94A8032A30E0E03E0774F40E94E40366
:1001FC00DE0156960E949703FE0174960E94E90355
:10020C00ACE6B2E00E94A8034A30E0E05E076CF472
:10021C000E94E403DE0112960E949703FE010E94E5
:10022C00E903AEE6B2E00E94A80383CFFFCFBA93F6
:10023C00AA931A930A93AA81BB8112960E943C043A
:10024C00309759F1AA81BB8114960E943C048F010E
:10025C00309761F00230E0E01E0798F0F80131971A
:10026C008F01AA81BB811496ED93FC93AA81BB816B
:10027C001296ED91FD913196FE93EE933197AC81F0
:10028C00A083AA81BB810E943C04FF232AF0ED913C
:10029C00FD913196FE93EE9306C0AA81BB81EFEFE0
:1002AC00FFEFED93FC931981088125960895BA937D
:1002BC00AA9326970E94490410E0AC85BD85E0E026
:1002CC00F0E0ED93FC93EA89FB893196EA8BFB8B8A
:1002DC003197E4912E2FE03009F415C1E12FE03075
:1002EC0039F4253211F411E002C00E94F0030AC166
:1002FC00E130A9F4253219F40E94F00302C112E096
:10030C0040E000E02D3211F401E0FCC02B3211F47E
:10031C004BE2F8C0203211F440E2F4C002C0E230EB
:10032C0039F450E013E0203311F40068EBC003C043
:10033C00E33009F0E7C0203310F02A3308F007C08F
:10034C00AAE05A9F502DE22FE0535E0FDBC0E22F44
:10035C00E33649F40E94F703E889F989A481AA934A
:10036C000E94FD03CEC0E33741F40E94F7030E94C4
:10037C0003040E94B5031E2F0AC0E03761F40E94EB
:10038C00F7030E9403040E94C1031E2F0860026041
:10039C000F7730E034C0E43611F0E93611F4046024
:1003AC0002C0E53731F4E4E5F0E0EE83FF8315E0BD
:1003BC000CC0E83511F4086003C0E83709F0A1C09F
:1003CC00EEE5F0E0EE83FF8314E002FF14C00E9420
:1003DC00F7030E940D04AB85AA233AF4EA85FB854A
:1003EC000E943304EA87FB874DE2403011F01F5F17
:1003FC0001C00B7F04C00E94F7030E940D0400FD96
:10040C0011C0151778F407FF08C002FF04C00B7F5A
:10041C00242F115001C020E301C020E20E94F00300
:10042C005150EFCF312F01FF17C03030A1F003FF37
:10043C0006C0EE81FF812591EE83FF8305C0AE815E
:10044C00BF812D91AE83BF830E94F003503009F021
:10045C0051503150EACF4BC020E3EE81FF810E9416
:10046C004004E887F987EE81FF813296EE83FF83A3
:10047C00E885F985AA85BB85AE17BF0750F02F5FBD
:10048C00A885B985EA85FB85EA1BFB0BEA87FB8708
:10049C00EFCF2A3328F003FF02C0295F01C0295D8A
:1004AC0004FD1AC0213320F4A885B985119709F4ED
:1004BC0009C0531710F000FF01C013C020E207FF62
:1004CC000BC020E3006102FF07C00B7F4A930E9420
:1004DC00FD03503009F051500E94F003503009F0E8
:1004EC0051503150A885B985129708F0B5CF00FF4F
:1004FC0008C0503031F05150E0E2EA930E94FD0305
:10050C00F8CF10E0E0CEAC85BD850E943C040E9483
:10051C00500464960895FF92F82E26970E944B047F
:10052C000E941504309719F4EFEFFFEF23C0DE01A2
:10053C0016960E942F048D010E941504EE83FF83F2
:10054C00E0E0E887E987DE011A960E942F040E94FA
:10055C003C04FA93EA931A930A93EDE1F1E0FA93CF
:10056C00EA93DE011A96A3DE9F01AE81BF81E0E023
:10057C00EC93F9010E9452042A96FF900895FFE033
:10058C00FA95F1F70895A7B3AF70A7BBC19AC098BD
:10059C00F6DFC29AF4DFA6B3C298F1DFC29AEFDF9E
:1005AC00C298A7FDF5CF0895A07FAB2BA8BBC29A2C
:1005BC000E94C502C2980E94C5020895AA93C198D0
:1005CC00A7B3A76FA7BBB8B3BF70A881EDDFA88195
:1005DC00A295EADFC19A0C949503C29A0E94C502B7
:1005EC00E6B3C2980E94C502E07F08950E94C5023E
:1005FC00F4DFAE2FF2DFC198E295EA2B0895AA93AF
:10060C000E94C902E881F0E0E059FD4FE081A98128
:10061C00AE0F0E94E40259804880229608950E94F1
:10062C00C902A2E00E94E4020E94C902ACE00E944E
:10063C00E4020E94C902A1E00E94E402E0E04E2E16
:10064C005E2E0895AA93EF93FF93A8816894AA3025
:10065C0019F0E894571430F04394E0E0EA93A42D99
:10066C00CEDF36F053948FDFC09AA8810E94E4024B
:10067C00FF91EF910C949503BA93AA931A93A981C5
:10068C00BA81ED91A983BA831E2FE03019F0A12F06
:10069C00D9DFF5CF188123960895AA27BB27119788
:1006AC00F1F70895AA93C198A7B3A76FA7BBB8B3E6
:1006BC00BF70A8810E94DA02C19A31C0AA93C29875
:1006CC00C0987880E881E058E0937202E881E054A9
:1006DC00E09373020E941C040E941C040E941C04E0
:1006EC00DCDFA0E2DFDFD9DFA8E20E942104A4E076
:1006FC000E942104A5E80E942104A7B3AF70A7BBF8
:10070C00C19A0E94FC02E53011F0E0E008C00E94A2
:10071C00C902A6E00E94E4020E941503E1E02196C2
:10072C000895BA93AA93E991F991A991B991CD0140
:10073C006D916623E9F7119761916D936623E1F74B
:10074C00FC010895BA93AA93E991F991A991B991F1
:10075C00CD0161916D936623E1F7FC010895BA9385
:10076C00AA93A991B991EE27FF276D91662311F0F9
:10077C003196FBCF0895BA93AA93AA27BB27E99188
:10078C00F9910590002011F01196FBCFFD01089511
:10079C000E944203A4E6B0E00C942504FA93EA9379
:1007AC00E0E8F0E0FA93EA9308950E9437040E947F
:1007BC00440484E00E94910228960895FE01FC9660
:1007CC00FA93EA930895FA93EA93DE01DE960E9477
:1007DC00A803F4CF2A93AD85BE85EF85F8890995DA
:1007EC000895E889F9893497E88BF98B0895AD85DC
:1007FC00BE85EF85F88909950895A889B98914965D
:10080C000E943C04EE83FF83AE81BF810895A889CA
:10081C00B98914960E943C04EA87FB870895DE018F
:10082C001C960E942F040E943C0408950E945303BE
:10083C00A0E30C9458030E94E4020C94530310960A
:10084C0039F0A89580ED97E00197F1F71197C9F76A
:10085C0008950024AF0DB01D0895F195E195F04079
:10086C0008956F2F660F660B762F0895ED91FC910E
:10087C00119708950590F491E02D08957A936A9359
:10088C00FA93EA9308955A934A933A932A931A93B4
:10089C000A9308955D814C813B812A8119810881DD
:1008AC000895AC0FBD1F05900D928A95E1F7089540
:00000001FF
