:080000000C942F000C94000089
:100008000C9400000C9400000C9400000C94000068
:100018000C9400000C9400000C9400000C94000058
:100028000C9400000C9400000C9400000C94000048
:100038000C9400000C9400000C9400000C94000038
:100048000C9400000C9400000C94000001000200C5
:10005800040054000000F894EE27ECBBF1E0FBBF6D
:10006800EBBFE5BF8DE0A2E0BB27ED938A95E9F7EA
:1000780080E098E0A0E6ED930197E9F7E6E5F0E087
:1000880085919591009761F0A591B591059015908E
:10009800BF01F00105900D920197E1F7FB01F0CF48
:1000A800EFE5EDBFE8E0EEBFC0E6D2E00C945C00FF
:1000B800E0E0EABBEBBBE7BBE8BBE4BBE5BBE1BB0D
:1000C800E2BB989B17C0E1E0F0E02F01EFE0F0E021
:1000D800E415F50574F0989903C0E0E0EBBB09C09E
:1000E8004BBAA4E6B0E00E948200F20131962F01DB
:1000F800EDCF02C0E0E0EBBBE4CFFFCF109639F0C4
:10010800A89580ED97E00197F1F71197C9F7089541
:00000001FF
