:0A0000000C945C000C9400000C94BA
:10000A0000000C9400000C9400000C9400000C9466
:10001A0000000C9400000C9400000C9400000C9456
:10002A0000000C9400000C9400000C9400000C9446
:10003A0000000C9400000C9400000C9400000C9436
:10004A0000000C9400000C9400001027E8036400E0
:10005A000A0001000010000110000100373431438A
:10006A00383532303936333D2F2A2D2B4E756D31C6
:10007A003A202564004E756D323A20256400526597
:10008A0073756C743A20256400436C65617265640B
:10009A00004F70657261746F723A2025630080C0E8
:1000AA0010006002660002008402A8000000F894B2
:1000BA00EE27ECBBF1E0FBBFEBBFE5BF8DE0A2E0B2
:1000CA00BB27ED938A95E9F780E098E0A0E6ED93E7
:1000DA000197E9F7EAEAF0E085919591009761F0D6
:1000EA00A591B59105901590BF01F00105900D926B
:1000FA000197E1F7FB01F0CFEFE5EDBFE8E0EEBFD6
:10010A00C0E6D2E00C94890020E030E040E050E004
:10011A0000E0E0E0E5BBE0EFE4BBA0E10E949B0366
:10012A0089D01E2F1F3F09F483C00E944C0310334D
:10013A0010F01A3308F01EC0003061F4F9010E9471
:10014A00E7039F010E94F203E6E7F0E0FA93EA93DD
:10015A00F9010BC0FA010E94E703AF010E94F20302
:10016A00EFE7F0E0FA93EA93FA010E944A040E9448
:10017A00F70355C01D3311F4003009F431C022973A
:10018A000B3221F4FA01E20FF31F1AC00D3221F4E7
:10019A00F901E41BF50B14C00A3229F4FA01D9015A
:1001AA000E9457040DC00F3269F400240416050694
:1001BA0029F0FA01D9010E946F0402C0E0E0F0E0E0
:1001CA00E883F9830E94F203E8E8F0E0FA93EA93FD
:1001DA00EC81FD810E944A040E94F70322961FC007
:1001EA00133481F420E030E040E050E000E00E9467
:1001FA00F203E3E9F0E0FA93EA9380E00E94C8028E
:10020A0024960DC0012F0E94F203EBE9F0E0FA9365
:10021A00EA93E02FFF27662777270E94F703E0E09B
:10022A00EA93A0E00E943C03A0E7B2E00E947903AF
:10023A0077CFFFCF0E9491043FEF20E710E0143000
:10024A0048F525BBA5E0B0E00E943804E3B3EF709F
:10025A000E2F073029F4E12FF0E0E05AFD4F3081EC
:10026A000B3021F4A4E6B2E00E94FE030D3021F423
:10027A00A8E6B2E00E94FE030E3021F4ACE6B2E03A
:10028A000E94FE03E22FE6952E2FE068E07F2E2FD4
:10029A001F5FD5CFE32F0E94980424960895BA933E
:1002AA00AA931A930A93AA81BB8112960E94820486
:1002BA00309759F1AA81BB8114960E9482048F015A
:1002CA00309761F00230E0E01E0798F0F8013197AC
:1002DA008F01AA81BB811496ED93FC93AA81BB81FD
:1002EA001296ED91FD913196FE93EE933197AC8182
:1002FA00A083AA81BB810E948204FF232AF0ED9188
:10030A00FD913196FE93EE9306C0AA81BB81EFEF71
:10031A00FFEFED93FC931981088125960895BA930E
:10032A00AA9326970E948F0410E0AC85BD85E0E071
:10033A00F0E0ED93FC93EA89FB893196EA8BFB8B1B
:10034A003197E4912E2FE03009F415C1E12FE03006
:10035A0039F4253211F411E002C00E9403040AC1E3
:10036A00E130A9F4253219F40E94030402C112E013
:10037A0040E000E02D3211F401E0FCC02B3211F410
:10038A004BE2F8C0203211F440E2F4C002C0E2307D
:10039A0039F450E013E0203311F40068EBC003C0D5
:1003AA00E33009F0E7C0203310F02A3308F007C021
:1003BA00AAE05A9F502DE22FE0535E0FDBC0E22FD6
:1003CA00E33649F40E940A04E889F989A481AA93C8
:1003DA000E941004CEC0E33741F40E940A040E942E
:1003EA0016040E94CE031E2F0AC0E03761F40E9451
:1003FA000A040E9416040E94DA031E2F0860026093
:10040A000F7730E034C0E43611F0E93611F40460B5
:10041A0002C0E53731F4E4E5F0E0EE83FF8315E04E
:10042A000CC0E83511F4086003C0E83709F0A1C030
:10043A00EEE5F0E0EE83FF8314E002FF14C00E94B1
:10044A000A040E942004AB85AA233AF4EA85FB85B4
:10045A000E944604EA87FB874DE2403011F01F5F95
:10046A0001C00B7F04C00E940A040E94200400FD00
:10047A0011C0151778F407FF08C002FF04C00B7FEC
:10048A00242F115001C020E301C020E20E9403047E
:10049A005150EFCF312F01FF17C03030A1F003FFC9
:1004AA0006C0EE81FF812591EE83FF8305C0AE81F0
:1004BA00BF812D91AE83BF830E940304503009F09F
:1004CA0051503150EACF4BC020E3EE81FF810E94A8
:1004DA008604E887F987EE81FF813296EE83FF83EF
:1004EA00E885F985AA85BB85AE17BF0750F02F5F4F
:1004FA00A885B985EA85FB85EA1BFB0BEA87FB879A
:10050A00EFCF2A3328F003FF02C0295F01C0295D1B
:10051A0004FD1AC0213320F4A885B985119709F47E
:10052A0009C0531710F000FF01C013C020E207FFF3
:10053A000BC020E3006102FF07C00B7F4A930E94B1
:10054A001004503009F051500E940304503009F051
:10055A0051503150A885B985129708F0B5CF00FFE0
:10056A0008C0503031F05150E0E2EA930E94100482
:10057A00F8CF10E0E0CEAC85BD850E9482040E94CF
:10058A00960464960895FF92F82E26970E94910485
:10059A000E942804309719F4EFEFFFEF23C0DE0121
:1005AA0016960E9442048D010E942804EE83FF835E
:1005BA00E0E0E887E987DE011A960E9442040E9479
:1005CA008204FA93EA931A930A93E4E5F1E0FA9320
:1005DA00EA93DE011A96A3DE9F01AE81BF81E0E0B5
:1005EA00EC93F9010E9498042A96FF900895FFE07F
:1005FA00FA95F1F70895AAB3AF70AABBD99AD89819
:10060A00F6DFDA9AF4DFA9B3DA98F1DFDA9AEFDFE4
:10061A00DA98A7FDF5CF0895A07FAB2BABBBDA9A8A
:10062A000E94FC02DA980E94FC020895AA93D998C3
:10063A00AAB3A76FAABBBBB3BF70A881EDDFA8811D
:10064A00A295EADFD99A0C94CC03DA9A0E94FC02AA
:10065A00E9B3DA980E94FC02E07F08950E94FC0246
:10066A00F4DFAE2FF2DFD998E295EA2B0895AA9328
:10067A000E940003E881F0E0EC57FD4FE081A98178
:10068A00AE0F0E941B0359804880229608950E944B
:10069A000003A2E00E941B030E940003ACE00E9438
:1006AA001B030E940003A1E00E941B03E0E04E2E00
:1006BA005E2E0895AA93EF93FF93A8816894AA30B7
:1006CA0019F0E894571430F04394E0E0EA93A42D2B
:1006DA00CEDF36F053948FDFD89AA8810E941B038D
:1006EA00FF91EF910C94CC03BA93AA931A93A98120
:1006FA00BA81ED91A983BA831E2FE03019F0A12F98
:10070A00D9DFF5CF188123960895AA27BB27119719
:10071A00F1F70895AA93D998AAB3A76FAABBBBB356
:10072A00BF70A8810E941103D99A31C0AA93DA989E
:10073A00D8987880E881E058E0938602E881E0540E
:10074A00E09387020E942F040E942F040E942F0424
:10075A00DCDFA0E2DFDFD9DFA8E20E943404A4E0F4
:10076A000E943404A5E80E943404AAB3AF70AABB5D
:10077A00D99A0E943303E53011F0E0E008C00E94E4
:10078A000003A6E00E941B030E944C03E1E02196AD
:10079A000895BA93AA93A991B991EE27FF276D916B
:1007AA00662311F03196FBCF0895BA93AA93AA272C
:1007BA00BB27E991F9910590002011F01196FBCF22
:1007CA00FD010895AAE0B0E00E945704DF01E12F7D
:1007DA00F0E0F097EA0FFB1F0895E0E7F2E0FA93E2
:1007EA00EA9308950E948A0484E00E94C802289627
:1007FA000895EE27A10FBE1F3C9108952A93AD8557
:10080A00BE85EF85F88909950895E889F9893497AD
:10081A00E88BF98B0895AD85BE85EF85F889099532
:10082A000895A889B98914960E948204EE83FF83E9
:10083A00AE81BF810895A889B98914960E9482045D
:10084A00EA87FB870895DE011C960E9442040E94F3
:10085A00820408950E948A03A0E30C948F030E94E5
:10086A001B030C948A03109639F0A89580ED97E043
:10087A000197F1F71197C9F708950024AF0DB01D3C
:10088A000895F195E195F04008956F2F660F660B74
:10089A00762F0895FA9FF02DEB9FF00DEA9FE02D39
:1008AA00F10D08951CD0F6DF0EF4EBDF0895002455
:1008BA00112490E1AA0FBB1F001C111C0E1A1F0A5B
:1008CA0018F40E0E1F1E01C0A1609A9599F7FD013A
:1008DA00D001089504D0EBDF0EF4D3DF0895E89435
:1008EA00F7FF02C0CEDF6894B7FF06C0A095B095A7
:1008FA00119600F8039400FA0895ED91FC9111976E
:10090A0008950590F491E02D08957A936A93FA93E5
:10091A00EA9308955A934A933A932A931A930A9315
:10092A0008955D814C813B812A811981088108954E
:00000001FF
