:0C0000000C9448000C9400000C940000CC
:10000C000C9400000C9400000C9400000C94000064
:10001C000C9400000C9400000C9400000C94000054
:10002C000C9400000C9400000C9400000C94000044
:10003C000C9400000C9400000C9400000C94000034
:10004C000C9400000C9400001027E80364000A00D4
:10005C000100001000011000010037343143383525
:10006C0032303936333D2F2A2D2B4B6579203D20EC
:10007C002563000080C0100060026600020084024C
:10008C0080000000F894EE27ECBBF1E0FBBFEBBF67
:10009C00E5BF8DE0A2E0BB27ED938A95E9F780E000
:1000AC0098E0A0E6ED930197E9F7E2E8F0E085919E
:1000BC009591009761F0A591B59105901590BF01B0
:1000CC00F00105900D920197E1F7FB01F0CFEFE500
:1000DC00EDBFE8E0EEBFC0E6D2E00C947500E0E0C6
:1000EC00E5BBE0EFE4BBA0E10E941B0322D01E2F76
:1000FC001F3FE9F00E94CC02E0E0EA93A0E00E94EE
:10010C00BC02E0E7F2E0FA93EA93E6E7F0E0FA9358
:10011C00EA93E12FFF27662777270E94BB0384E031
:10012C000E9448022896A0E7B2E00E94F902DECFB6
:10013C00FFCF0E94C2033FEF20E710E0143048F5D8
:10014C0025BBA5E0B0E00E94A103E3B3EF700E2F36
:10015C00073029F4E12FF0E0E05AFD4F30810B30ED
:10016C0021F4A4E6B2E00E9467030D3021F4A8E666
:10017C00B2E00E9467030E3021F4ACE6B2E00E94BC
:10018C006703E22FE6952E2FE068E07F2E2F1F5F8E
:10019C00D5CFE32F0E94C90324960895BA93AA934E
:1001AC001A930A93AA81BB8112960E94B3033097CB
:1001BC0059F1AA81BB8114960E94B3038F01309729
:1001CC0061F00230E0E01E0798F0F80131978F01E2
:1001DC00AA81BB811496ED93FC93AA81BB811296E4
:1001EC00ED91FD913196FE93EE933197AC81A08306
:1001FC00AA81BB810E94B303FF232AF0ED91FD91EC
:10020C003196FE93EE9306C0AA81BB81EFEFFFEF10
:10021C00ED93FC931981088125960895BA93AA93BE
:10022C0026970E94C00310E0AC85BD85E0E0F0E0AD
:10023C00ED93FC93EA89FB893196EA8BFB8B319722
:10024C00E4912E2FE03009F415C1E12FE03039F4A0
:10025C00253211F411E002C00E946C030AC1E13096
:10026C00A9F4253219F40E946C0302C112E040E09B
:10027C0000E02D3211F401E0FCC02B3211F44BE202
:10028C00F8C0203211F440E2F4C002C0E23039F47C
:10029C0050E013E0203311F40068EBC003C0E330EE
:1002AC0009F0E7C0203310F02A3308F007C0AAE0A9
:1002BC005A9F502DE22FE0535E0FDBC0E22FE33646
:1002CC0049F40E947303E889F989A481AA930E94D6
:1002DC007903CEC0E33741F40E9473030E947F037D
:1002EC000E944E031E2F0AC0E03761F40E94730374
:1002FC000E947F030E945A031E2F086002600F7732
:10030C0030E034C0E43611F0E93611F4046002C078
:10031C00E53731F4E4E5F0E0EE83FF8315E00CC043
:10032C00E83511F4086003C0E83709F0A1C0EEE528
:10033C00F0E0EE83FF8314E002FF14C00E9473030D
:10034C000E948903AB85AA233AF4EA85FB850E94B7
:10035C00AF03EA87FB874DE2403011F01F5F01C00D
:10036C000B7F04C00E9473030E94890300FD11C01F
:10037C00151778F407FF08C002FF04C00B7F242F69
:10038C00115001C020E301C020E20E946C035150C7
:10039C00EFCF312F01FF17C03030A1F003FF06C0A3
:1003AC00EE81FF812591EE83FF8305C0AE81BF8175
:1003BC002D91AE83BF830E946C03503009F05150D5
:1003CC003150EACF4BC020E3EE81FF810E94B7038E
:1003DC00E887F987EE81FF813296EE83FF83E8850B
:1003EC00F985AA85BB85AE17BF0750F02F5FA8858E
:1003FC00B985EA85FB85EA1BFB0BEA87FB87EFCF08
:10040C002A3328F003FF02C0295F01C0295D04FDD7
:10041C001AC0213320F4A885B985119709F409C0B5
:10042C00531710F000FF01C013C020E207FF0BC0F0
:10043C0020E3006102FF07C00B7F4A930E947903FF
:10044C00503009F051500E946C03503009F051505B
:10045C003150A885B985129708F0B5CF00FF08C0B8
:10046C00503031F05150E0E2EA930E947903F8CF1A
:10047C0010E0E0CEAC85BD850E94B3030E94C7039B
:10048C0064960895FF92F82E26970E94C2030E944C
:10049C009103309719F4EFEFFFEF23C0DE011696AE
:1004AC000E94AB038D010E949103EE83FF83E0E079
:1004BC00E887E987DE011A960E94AB030E94B3031A
:1004CC00FA93EA931A930A93E4EDF0E0FA93EA9321
:1004DC00DE011A96A3DE9F01AE81BF81E0E0EC93B2
:1004EC00F9010E94C9032A96FF900895FFE0FA953E
:1004FC00F1F70895AAB3AF70AABBD99AD898F6DFD2
:10050C00DA9AF4DFA9B3DA98F1DFDA9AEFDFDA9846
:10051C00A7FDF5CF0895A07FAB2BABBBDA9A0E9459
:10052C007C02DA980E947C020895AA93D998AAB307
:10053C00A76FAABBBBB3BF70A881EDDFA881A29542
:10054C00EADFD99A0C944C03DA9A0E947C02E9B344
:10055C00DA980E947C02E07F08950E947C02F4DF0E
:10056C00AE2FF2DFD998E295EA2B0895AA930E9458
:10057C008002E881F0E0EC57FD4FE081A981AE0FDD
:10058C000E949B0259804880229608950E94800206
:10059C00A2E00E949B020E948002ACE00E949B029F
:1005AC000E948002A1E00E949B02E0E04E2E5E2E93
:1005BC000895AA93EF93FF93A8816894AA3019F039
:1005CC00E894571430F04394E0E0EA93A42DCEDF86
:1005DC0036F053948FDFD89AA8810E949B02FF912A
:1005EC00EF910C944C03BA93AA931A93A981BA81F4
:1005FC00ED91A983BA831E2FE03019F0A12FD9DF1A
:10060C00F5CF188123960895AA27BB271197F1F7E8
:10061C000895AA93D998AAB3A76FAABBBBB3BF700E
:10062C00A8810E949102D99A31C0AA93DA98D898DD
:10063C007880E881E058E0938602E881E054E0930A
:10064C0087020E9498030E9498030E949803DCDFA3
:10065C00A0E2DFDFD9DFA8E20E949D03A4E00E94A4
:10066C009D03A5E80E949D03AAB3AF70AABBD99ABB
:10067C000E94B302E53011F0E0E008C00E94800255
:10068C00A6E00E949B020E94CC02E1E02196089514
:10069C00BA93AA93A991B991EE27FF276D9166237E
:1006AC0011F03196FBCF0895BA93AA93AA27BB27D2
:1006BC00E991F9910590002011F01196FBCFFD0105
:1006CC000895EE27A10FBE1F3C9108952A93AD8586
:1006DC00BE85EF85F88909950895E889F9893497DD
:1006EC00E88BF98B0895AD85BE85EF85F889099562
:1006FC000895A889B98914960E94B303EE83FF83E9
:10070C00AE81BF810895A889B98914960E94B3035C
:10071C00EA87FB870895DE011C960E94AB030E94BA
:10072C00B30308950E940A03A0E30C940F030E94E4
:10073C009B020C940A03109639F0A89580ED97E073
:10074C000197F1F71197C9F708950024AF0DB01D6B
:10075C000895F195E195F0400895ED91FC91119774
:10076C0008950590F491E02D08957A936A93FA9385
:10077C00EA9308955A934A933A932A931A930A93B5
:10078C0008955D814C813B812A81198108810895EE
:00000001FF
