:020000000C945E
:100002002A000C9400000C9400000C9400000C9444
:1000120000000C9400000C9400000C9400000C945E
:1000220000000C9400000C9400000C9400000C944E
:1000320000000C9400000C9400000C9400000C943E
:1000420000000C9400000C9400000C9400000C942E
:100052000000F894EE27ECBBF1E0FBBFEBBFE5BF7D
:100062008DE0A2E0BB27ED938A95E9F780E098E066
:10007200A0E6ED930197E9F7EFE5EDBFE8E0EEBF0B
:10008200C0E6D2E00C944500EFEFE1BB0FD014D0F4
:1000920019D01ED0E0E0E2BBA4E6B0E00E946F00FF
:1000A20017D010D009D002D0F1CFFFCFE1E8E2BBE8
:1000B200A4E6B0E00C946F00E2E4E2BBA4E6B0E098
:1000C2000C946F00E4E2E2BBA4E6B0E00C946F0093
:1000D200E8E1E2BBA4E6B0E00C946F00109639F0C0
:1000E200A89580ED97E00197F1F71197C9F7089568
:00000001FF
