:080000000C9446000C94000072
:100008000C9400000C9400000C9400000C94000068
:100018000C9400000C9400000C9400000C94000058
:100028000C9400000C9400000C9400000C94000048
:100038000C9400000C9400000C9400000C94000038
:100048000C9400000C9400000C9400001027E803A6
:1000580064000A00010000100001100001003134A2
:10006800372A33363923323038354B6579203D20ED
:100078002563000080C00C00600266000200800258
:100088007C000000F894EE27ECBBF1E0FBBFEBBF6F
:10009800E5BF8DE0A2E0BB27ED938A95E9F780E004
:1000A80098E0A0E6ED930197E9F7EEE7F0E0859197
:1000B8009591009761F0A591B59105901590BF01B4
:1000C800F00105900D920197E1F7FB01F0CFEFE504
:1000D800EDBFE8E0EEBFC0E6D2E00C947300E0E0CC
:1000E800E5BBE0EFE4BBA0E10E94160322D01E2F7F
:1000F8001F3FE9F00E94C702E0E0EA93A0E00E94F7
:10010800B702ECE6F2E0FA93EA93E2E7F0E0FA935A
:10011800EA93E12FFF27662777270E94B10384E03F
:100128000E9443022896ACE6B2E00E94F402DECFB9
:10013800FFCF0E94B8033FEF20E710E0143030F5FE
:1001480025BBA5E0B0E00E949703E3B3EF700E2F44
:10015800073031F4E12FF0E0E05AFD4F30810DC057
:100168000B3019F4A4E6B2E004C00D3031F4A8E66F
:10017800B2E0EE27A10FBE1F3C9126952068207F94
:10018800A5E0B0E00E9497031F5FD8CFE32F0E943D
:10019800BF0324960895BA93AA931A930A93AA813F
:1001A800BB8112960E94A903309759F1AA81BB819D
:1001B80014960E94A9038F01309761F00230E0E0A5
:1001C8001E0798F0F80131978F01AA81BB81149618
:1001D800ED93FC93AA81BB811296ED91FD91319626
:1001E800FE93EE933197AC81A083AA81BB810E94D4
:1001F800A903FF232AF0ED91FD913196FE93EE932A
:1002080006C0AA81BB81EFEFFFEFED93FC93198144
:10021800088125960895BA93AA9326970E94B60353
:1002280010E0AC85BD85E0E0F0E0ED93FC93EA8951
:10023800FB893196EA8BFB8B3197E4912E2FE030C6
:1002480009F415C1E12FE03039F4253211F411E039
:1002580002C00E9462030AC1E130A9F4253219F4F0
:100268000E94620302C112E040E000E02D3211F466
:1002780001E0FCC02B3211F44BE2F8C0203211F43B
:1002880040E2F4C002C0E23039F450E013E0203319
:1002980011F40068EBC003C0E33009F0E7C0203375
:1002A80010F02A3308F007C0AAE05A9F502DE22F19
:1002B800E0535E0FDBC0E22FE33649F40E94690386
:1002C800E889F989A481AA930E946F03CEC0E33715
:1002D80041F40E9469030E9475030E9449031E2F7E
:1002E8000AC0E03761F40E9469030E9475030E9406
:1002F80055031E2F086002600F7730E034C0E436E3
:1003080011F0E93611F4046002C0E53731F4E4E590
:10031800F0E0EE83FF8315E00CC0E83511F40860C7
:1003280003C0E83709F0A1C0EEE5F0E0EE83FF83F3
:1003380014E002FF14C00E9469030E947F03AB858A
:10034800AA233AF4EA85FB850E94A503EA87FB877E
:100358004DE2403011F01F5F01C00B7F04C00E94C6
:1003680069030E947F0300FD11C0151778F407FF89
:1003780008C002FF04C00B7F242F115001C020E3E6
:1003880001C020E20E9462035150EFCF312F01FFDC
:1003980017C03030A1F003FF06C0EE81FF81259120
:1003A800EE83FF8305C0AE81BF812D91AE83BF83ED
:1003B8000E946203503009F051503150EACF4BC0CF
:1003C80020E3EE81FF810E94AD03E887F987EE8183
:1003D800FF813296EE83FF83E885F985AA85BB8580
:1003E800AE17BF0750F02F5FA885B985EA85FB8552
:1003F800EA1BFB0BEA87FB87EFCF2A3328F003FFC2
:1004080002C0295F01C0295D04FD1AC0213320F410
:10041800A885B985119709F409C0531710F000FF92
:1004280001C013C020E207FF0BC020E3006102FFF8
:1004380007C00B7F4A930E946F03503009F0515058
:100448000E946203503009F051503150A885B98597
:10045800129708F0B5CF00FF08C0503031F0515066
:10046800E0E2EA930E946F03F8CF10E0E0CEAC859B
:10047800BD850E94A9030E94BD0364960895FF925A
:10048800F82E26970E94B8030E948703309719F424
:10049800EFEFFFEF23C0DE0116960E94A1038D0146
:1004A8000E948703EE83FF83E0E0E887E987DE01A7
:1004B8001A960E94A1030E94A903FA93EA931A9339
:1004C8000A93EFECF0E0FA93EA93DE011A96A3DEC2
:1004D8009F01AE81BF81E0E0EC93F9010E94BF0368
:1004E8002A96FF900895FFE0FA95F1F70895AAB3C8
:1004F800AF70AABBD99AD898F6DFDA9AF4DFA9B315
:10050800DA98F1DFDA9AEFDFDA98A7FDF5CF0895E8
:10051800A07FAB2BABBBDA9A0E947702DA980E94D5
:1005280077020895AA93D998AAB3A76FAABBBBB3B9
:10053800BF70A881EDDFA881A295EADFD99A0C9453
:100548004703DA9A0E947702E9B3DA980E947702A1
:10055800E07F08950E947702F4DFAE2FF2DFD9988A
:10056800E295EA2B0895AA930E947B02E881F0E0C5
:10057800E058FD4FE081A981AE0F0E949602598094
:100588004880229608950E947B02A2E00E9496026B
:100598000E947B02ACE00E9496020E947B02A1E0CE
:1005A8000E949602E0E04E2E5E2E0895AA93EF93E5
:1005B800FF93A8816894AA3019F0E894571430F092
:1005C8004394E0E0EA93A42DCEDF36F053948FDF16
:1005D800D89AA8810E949602FF91EF910C94470344
:1005E800BA93AA931A93A981BA81ED91A983BA8380
:1005F8001E2FE03019F0A12FD9DFF5CF18812396EF
:100608000895AA27BB271197F1F70895AA93D998B7
:10061800AAB3A76FAABBBBB3BF70A8810E948C0204
:10062800D99A31C0AA93DA98D8987880E881E058A6
:10063800E0938202E881E054E09383020E948E03F3
:100648000E948E030E948E03DCDFA0E2DFDFD9DF89
:10065800A8E20E949303A4E00E949303A5E80E94E5
:100668009303AAB3AF70AABBD99A0E94AE02E53031
:1006780011F0E0E008C00E947B02A6E00E9496020A
:100688000E94C702E1E021960895BA93AA93A9911E
:10069800B991EE27FF276D91662311F03196FBCFB4
:1006A8000895BA93AA93AA27BB27E991F9910590CF
:1006B800002011F01196FBCFFD0108952A93AD8516
:1006C800BE85EF85F88909950895E889F9893497F1
:1006D800E88BF98B0895AD85BE85EF85F889099576
:1006E8000895A889B98914960E94A903EE83FF8307
:1006F800AE81BF810895A889B98914960E94A9037B
:10070800EA87FB870895DE011C960E94A1030E94D8
:10071800A90308950E940503A0E30C940A030E940C
:1007280096020C940503109639F0A89580ED97E091
:100738000197F1F71197C9F708950024AF0DB01D7F
:100748000895F195E195F0400895ED91FC91119788
:1007580008950590F491E02D08957A936A93FA9399
:10076800EA9308955A934A933A932A931A930A93C9
:1007780008955D814C813B812A8119810881089502
:00000001FF
