:020000000C945E
:100002002A000C9400000C9400000C9400000C9444
:1000120000000C9400000C9400000C9400000C945E
:1000220000000C9400000C9400000C9400000C944E
:1000320000000C9400000C9400000C9400000C943E
:1000420000000C9400000C9400000C9400000C942E
:100052000000F894EE27ECBBF1E0FBBFEBBFE5BF7D
:100062008DE0A2E0BB27ED938A95E9F780E098E066
:10007200A0E6ED930197E9F7EFE5EDBFE8E0EEBF0B
:10008200C0E6D2E00C944500EFEFE1BBE1E0F0E026
:100092002F01E0E8F0E04E165F0644F442BAA4E60F
:1000A200B0E00E946D00440C551CF3CFE0E4F0E098
:1000B2002F01E1E0F0E04E165F0664F442BAA4E6D6
:1000C200B0E00E946D00D201E2E0F0E00E948E00FA
:1000D2002F01EFCFDBCFFFCF109639F0A89580ED3F
:1000E20097E00197F1F71197C9F70895F195E19516
:1000F200F04008950024112490E1AA0FBB1F001CB8
:10010200111C0E1A1F0A18F40E0E1F1E01C0A16048
:100112009A9599F7FD01D001089504D0EBDF0EF412
:10012200E5DF0895E894F7FF02C0E0DF6894B7FFC7
:1001320006C0A095B095119600F8039400FA0895B0
:00000001FF
